:020000020000FC
:0200000020C01E
:040004000C94081739
:02001C0078C3A7
:0200200076C3A5
:02002400B1C267
:02003400A8C260
:1000400030C200E00ABD0093090801E000930A08ED
:10005000F89400E003BF08E00EBF0FEF0DBF00E80B
:1000600005B90FE704B900E408B900E007B90FE1EA
:100070000BB90BE40AB906E80093640003E804BD79
:1000800001E005BD01E000936E0001E00093B000C7
:100090000CE00093B10005ED0093B30005E500937B
:1000A000B40007E00093700006E600937C0007ECC4
:1000B00000937A0000E000937B0000E40093620864
:1000C00000E50093610801E0B02E0FEFC02E00E0C4
:1000D000A02EA0920008A0920108A0920208A0926F
:1000E0000308AEBA0AB50F700ABD08E00BBDD02EEA
:1000F0000CE000BDA09217080093110800931208AD
:100100000093130800931408A0E0B2E0C0E0D1E02F
:10011000A0921608A0920D08A0920E08A0920F08B7
:10012000A09210084427552766277727882700E4E0
:100130000093080803E000931B08A0921D0804E048
:100140000093210808E00093220809E000932308A7
:100150000CE00093240800E10093250802E10093DD
:10016000260808E00093290809E000932A080CE01B
:1001700000932B0800E100932C0802E100932D0866
:1001800008E100932E0800E10093310802E100939A
:10019000320808E1009333080BE10093340800E2D1
:1001A0000093350804E20093360800E20093390812
:1001B00004E200933A0800E300933B0806E300934F
:1001C0003C0800E400933D0808E400933E0800E486
:1001D0000093400802E00093410801E000934208C8
:1001E00001E00093430800E20093440801E000931B
:1001F000450800E40093460804E00093470803E044
:100200000093690007E007BB01E00CBB05BB06BB20
:1002100000000DBB7894589930C0109101081093DC
:100220000308909301081927192396FF13C00AB5F4
:1002300010271ABD14FF30C015FF2EC0A092090868
:1002400001E000930A08CA2DD02F1F711ABD10ECCF
:10025000C12E22C01F7001F113FD18E012FD14E041
:1002600011FD12E01BBD13FD0CE012FD04E111FDB8
:100270000CE110FD04E200BD0FC096FD0DC0109111
:10028000000810930208909300080FEF0927C02E72
:1002900019271923109317080AB504FD4EC01091B1
:1002A00017081123B1F007E00A9599F01695E0F7C9
:1002B000E0B5E0931E08E871E062E02BF8E0908181
:1002C00090931F080F931F9376D21F910F911123C4
:1002D00059F7A0921708009108080A95009308089A
:1002E00009F082C00091090810910A08C017D107CF
:1002F00030F0CC27D1E0C017D10708F075C0999134
:10030000909308080991199100931E0810931F08F3
:1003100052D219910FEF0127006CC02E00910808EE
:10032000002301F30091090810910A08C017D107B2
:1003300008F45AC0CC27D1E057C0009108080395B3
:100340000093080889F4E0910908F0910A08EC1775
:10035000FD0739F001E0009308080AB50F700ABDE7
:1003600043C000E800930808109117081123E1F139
:10037000C0931908D0931A08C0910908D0910A08AF
:1003800007E00A9539F11695E0F7909108089F77F4
:100390009993C55008F09883CB5FE0B5E993E0935B
:1003A0001E08E871E062E02BF8E090819993909349
:1003B0001F08909117089993EFEFE927E06CCE2E74
:1003C0000F931F93F8D11F910F9190E89093080815
:1003D0001123B9F6A0921708C0930908D0930A0810
:1003E000C0911908D0911A08009115080A95009338
:1003F00015080F70E1F426F00BB5D02E689414C0E8
:1004000000911C0807FF08C00AB51BB5012BD02EB0
:10041000A0921C08E89408C00AB51BB50127D02E8D
:1004200000E800931C08E89407E000931508E091A9
:100430006108E5FFFCCF1EE0589B1DE01BB9992722
:10044000E0E5F8E01127008106951A1D0193E5FF0C
:10045000FACF173008F490689695009162080695D7
:100460000093620868F700E40093620800E50093D7
:100470006108E0916408F0916308A0926408A0927A
:10048000630800E500936108E295F295EF70EF2BA9
:10049000E83F28F4E295EF70FEE28491BCCE8A2D0D
:1004A000BACE27BD3FB73EBB332722279F93EF939A
:1004B000FF93442361F0240E3A1CF101F7709091F0
:1004C0001108F92B9491E0910D089E9F212D552341
:1004D00069F0450E5A1CF201F77090911208F92B41
:1004E0009491E0910E089E9F210D3A1D662369F0BC
:1004F000660E7A1CF301F77090911308F92B949112
:10050000E0910F089E9F210D3A1D772369F0870E19
:100510009A1CF401F77090911408F92B9491E091D2
:1005200010089E9F210D3A1D882349F0E80EFA1C01
:10053000F701F77090B5F92B9491290F3A1D369574
:100540002795369527953AB531FF01C0207F32FFB8
:100550000EC09C91E3E09E9F020E1A1C1694079415
:1005600016940794202D2D93B83009F4B2E030FF93
:1005700004C0E1B52E9F210D2795FF91EF919F912A
:100580003EB33FBF18951895EF93FF93EFB7EF93E6
:10059000EAB5E3FF0FC0E0911B08E195E0931B086B
:1005A0004A114E0F5A115E0F6A116E0F7A117E0FAB
:1005B0008A118E0FF0911608EF2FE37031F1E130C0
:1005C00099F0E230B1F0E0910D0830914C08E31B56
:1005D000E0930D08D0F4A0920D08FC7FE0911D0877
:1005E000EE7FE0931D0811C0A0920D08FC7FF26021
:1005F0000CC0E0910D0830914808E30FE0930D081E
:1006000020F4EFEFE0930D08F160EF2FEC7031F183
:10061000E43099F0E830B1F0E0910E0830914D08E7
:10062000E31BE0930E08D0F4A0920E08F37FE09154
:100630001D08ED7FE0931D0811C0A0920E08F37F06
:10064000F8600CC0E0910E0830914908E30FE09388
:100650000E0820F4EFEFE0930E08F460EF2FE07344
:1006600031F1E03199F0E032B1F0E0910F083091D2
:100670004E08E31BE0930F08D0F4A0920F08FF7C14
:10068000E0911D08EB7FE0931D0811C0A0920F08B8
:10069000FF7CF0620CC0E0910F0830914A08E30F34
:1006A000E0930F0820F4EFEFE0930F08F061EF2FD5
:1006B000E07C31F1E03499F0E038B1F0E0911008DD
:1006C00030914F08E31BE0931008D0F4A09210087B
:1006D000FF73E0911D08E77FE0931D0811C0A09211
:1006E0001008FF73F0680CC0E091100830914B08BF
:1006F000E30FE093100820F4EFEFE0931008F064AC
:10070000F0931608EF91EFBFFF91EF911895EF93DB
:10071000EFB7EF93FF93E0916108E5FD17C036B1A5
:100720003F734C993064F8E03193E0936108309165
:100730007900E0916408F0916308E30FFA1DE093FB
:100740006408F093630837EC30937A00E091040872
:10075000E395EF77FCE2349131BDE09304082E99E4
:100760001EC0B5FC0BC0EB2DED21EF7BE068E5B9B9
:10077000BB0CFF91EF91EFBFEF911895BB0CEFEF22
:10078000E5B9FF91EF91EFBFEF911895E1E0BE2E33
:10079000E0E8E5B9FF91EF91EFBFEF911895B694BE
:1007A000A9F3EFEFEB25EC29E06CE5B9FF91EF91B0
:1007B000EFBFEF91189590911D0893FFFBC092FF3A
:1007C000DCC091FFBDC090FF9EC00FEF102FF8015D
:1007D000903C10F0009110089F73903310F010912E
:1007E0000F089F709C3010F0E0910E0893709330CA
:1007F00010F0F0910D0890911D08011728F4EF17E3
:1008000040F00F1760F462C0EF1730F01F1738F494
:1008100040C00E1708F55AC01E17F0F43AC0E09118
:100820001E0810911F08E0931108412FE871E6950A
:10083000E695E064F8E0008100934808E3950081C4
:1008400000934C08009116080C7F02600093160874
:10085000916090931D080895E0911E0810911F0863
:10086000E0931208512FE871E695E695E064F8E010
:10087000008100934908E395008100934D080091A1
:100880001608037F086000931608926090931D0875
:100890000895E0911E0810911F08E0931308612F3E
:1008A000E871E695E695E064F8E0008100934A0877
:1008B000E395008100934E08009116080F7C0062BA
:1008C00000931608946090931D080895E0911E0807
:1008D00010911F08E0931408712FE871E695E695D2
:1008E000E064F8E0008100934B08E39500810093F9
:1008F0004F08009116080F7300680093160898605F
:1009000090931D080895E0911E0810911F08E09330
:100910001108412FE871E695E695E064F8E0008162
:1009200000934808E395008100934C080091160855
:100930000C7F016000931608916090931D08089544
:10094000E0911E0810911F08E0931208512FE871E2
:10095000E695E695E064F8E0008100934908E395A8
:10096000008100934D0800911608037F04600093F6
:100970001608926090931D080895E0911E0810914A
:100980001F08E0931308612FE871E695E695E0648F
:10099000F8E0008100934A08E395008100934E0837
:1009A000009116080F7C00610093160894609093E4
:1009B0001D080895E0911E0810911F08E093140887
:1009C000712FE871E695E695E064F8E00081009308
:1009D0004B08E395008100934F08009116080F73B0
:0E09E000006400931608986090931D08089517
:100C000080808181828282838384848485858586B5
:100C10008687878788888989898A8A8B8B8B8C8C41
:100C20008C8D8D8E8E8E8F8F9090909191919292CF
:100C3000939393949495959596969697979898985C
:100C400099999A9A9A9B9B9B9C9C9D9D9D9E9E9EEA
:100C50009F9FA0A0A0A1A1A1A2A2A3A3A3A4A4A47A
:100C6000A5A5A6A6A6A7A7A7A8A8A9A9A9AAAAAA0A
:100C7000ABABACACACADADADAEAEAEAFAFB0B0B09B
:100C8000B1B1B1B2B2B2B3B3B3B4B4B5B5B5B6B62F
:100C9000B6B7B7B7B8B8B8B9B9B9BABABABBBBBCC6
:100CA000BCBCBDBDBDBEBEBEBFBFBFC0C0C0C1C15C
:100CB000C1C2C2C2C3C3C3C4C4C4C5C5C5C6C6C6F7
:100CC000C7C7C7C8C8C8C8C9C9C9CACACACBCBCB95
:100CD000CCCCCCCDCDCDCECECECECFCFCFD0D0D034
:100CE000D1D1D1D1D2D2D2D3D3D3D4D4D4D4D5D5D7
:100CF000D5D6D6D6D6D7D7D7D8D8D8D8D9D9D9DA7D
:100D0000DADADADBDBDBDBDCDCDCDDDDDDDDDEDE25
:100D1000DEDEDFDFDFDFE0E0E0E0E1E1E1E1E2E2D3
:100D2000E2E2E3E3E3E3E4E4E4E4E5E5E5E5E6E683
:100D3000E6E6E6E7E7E7E7E8E8E8E8E9E9E9E9E938
:100D4000EAEAEAEAEAEBEBEBEBECECECECECEDEDEF
:100D5000EDEDEDEEEEEEEEEEEFEFEFEFEFEFF0F0AC
:100D6000F0F0F0F1F1F1F1F1F1F2F2F2F2F2F2F36E
:100D7000F3F3F3F3F3F4F4F4F4F4F4F5F5F5F5F533
:100D8000F5F5F6F6F6F6F6F6F6F7F7F7F7F7F7F7FE
:100D9000F8F8F8F8F8F8F8F8F9F9F9F9F9F9F9F9CB
:100DA000FAFAFAFAFAFAFAFAFAFBFBFBFBFBFBFB9C
:100DB000FBFBFBFBFCFCFCFCFCFCFCFCFCFCFCFC77
:100DC000FDFDFDFDFDFDFDFDFDFDFDFDFDFDFEFE51
:100DD000FEFEFEFEFEFEFEFEFEFEFEFEFEFEFEFE33
:100DE000FEFEFEFEFFFFFFFFFFFFFFFFFFFFFFFF17
:100DF000FFFFFFFFFFFFFFFFFFFFFFFFFFFFFFFF03
:100E0000FFFFFFFFFFFFFFFFFFFFFFFFFFFFFFFFF2
:100E1000FFFFFFFFFFFFFFFFFFFFFFFFFFFEFEFEE5
:100E2000FEFEFEFEFEFEFEFEFEFEFEFEFEFEFEFEE2
:100E3000FEFEFEFDFDFDFDFDFDFDFDFDFDFDFDFDDF
:100E4000FDFCFCFCFCFCFCFCFCFCFCFCFCFBFBFBE4
:100E5000FBFBFBFBFBFBFBFBFAFAFAFAFAFAFAFAEA
:100E6000FAF9F9F9F9F9F9F9F9F8F8F8F8F8F8F8F8
:100E7000F8F7F7F7F7F7F7F7F6F6F6F6F6F6F6F50A
:100E8000F5F5F5F5F5F5F4F4F4F4F4F4F3F3F3F320
:100E9000F3F3F2F2F2F2F2F2F1F1F1F1F1F1F0F03A
:100EA000F0F0F0EFEFEFEFEFEFEEEEEEEEEEEDED58
:100EB000EDEDEDECECECECECEBEBEBEBEAEAEAEA7B
:100EC000EAE9E9E9E9E9E8E8E8E8E7E7E7E7E6E6A3
:100ED000E6E6E6E5E5E5E5E4E4E4E4E3E3E3E3E2CE
:100EE000E2E2E2E1E1E1E1E0E0E0E0DFDFDFDFDEFE
:100EF000DEDEDEDDDDDDDDDCDCDCDBDBDBDBDADA30
:100F0000DADAD9D9D9D8D8D8D8D7D7D7D6D6D6D665
:100F1000D5D5D5D4D4D4D4D3D3D3D2D2D2D1D1D1A0
:100F2000D1D0D0D0CFCFCFCECECECECDCDCDCCCCDC
:100F3000CCCBCBCBCACACAC9C9C9C8C8C8C8C7C71D
:100F4000C7C6C6C6C5C5C5C4C4C4C3C3C3C2C2C25E
:100F5000C1C1C1C0C0C0BFBFBFBEBEBEBDBDBDBCA4
:100F6000BCBCBBBBBABABAB9B9B9B8B8B8B7B7B7ED
:100F7000B6B6B6B5B5B5B4B4B3B3B3B2B2B2B1B137
:100F8000B1B0B0B0AFAFAEAEAEADADADACACACAB82
:100F9000ABAAAAAAA9A9A9A8A8A7A7A7A6A6A6A5D1
:100FA000A5A4A4A4A3A3A3A2A2A1A1A1A0A0A09F21
:100FB0009F9E9E9E9D9D9D9C9C9B9B9B9A9A9A9971
:100FC00099989898979796969695959594949393C3
:100FD0009392929191919090908F8F8E8E8E8D8D15
:100FE0008C8C8C8B8B8B8A8A898989888887878768
:100FF00086868585858484848383828282818180BC
:1010000080807F7F7E7E7E7D7D7C7C7C7B7B7B7A0F
:101010007A79797978787777777676757575747463
:1010200074737372727271717070706F6F6F6E6EB5
:101030006D6D6D6C6C6B6B6B6A6A6A696968686808
:10104000676766666665656564646363636262625A
:1010500061616060605F5F5F5E5E5D5D5D5C5C5CAA
:101060005B5B5A5A5A5959595858575757565656FA
:101070005555545454535353525252515150505049
:101080004F4F4F4E4E4E4D4D4D4C4C4B4B4B4A4A95
:101090004A494949484848474747464646454544DE
:1010A00044444343434242424141414040403F3F28
:1010B0003F3E3E3E3D3D3D3C3C3C3B3B3B3A3A3A6D
:1010C00039393938383838373737363636353535AF
:1010D00034343433333332323232313131303030F0
:1010E0002F2F2F2F2E2E2E2D2D2D2C2C2C2C2B2B2D
:1010F0002B2A2A2A2A292929282828282727272667
:10110000262626252525252424242323232322229D
:10111000222221212121202020201F1F1F1F1E1ECF
:101120001E1E1D1D1D1D1C1C1C1C1B1B1B1B1A1AFF
:101130001A1A1A191919191818181817171717172A
:101140001616161616151515151414141414131353
:101150001313131212121212111111111111101076
:101160001010100F0F0F0F0F0F0E0E0E0E0E0E0D94
:101170000D0D0D0D0D0C0C0C0C0C0C0B0B0B0B0BAF
:101180000B0B0A0A0A0A0A0A0A09090909090909C4
:1011900008080808080808080707070707070707D7
:1011A00006060606060606060605050505050505E6
:1011B00005050505040404040404040404040404EB
:1011C00003030303030303030303030303030202F1
:1011D00002020202020202020202020202020202EF
:1011E00002020202010101010101010101010101EB
:1011F00001010101010101010101010101010101DF
:1012000001010101010101010101010101010101CE
:1012100001010101010101010101010101020202BB
:10122000020202020202020202020202020202029E
:101230000202020303030303030303030303030381
:10124000030404040404040404040404040505055C
:101250000505050505050505060606060606060636
:101260000607070707070707070808080808080808
:1012700008090909090909090A0A0A0A0A0A0A0BD6
:101280000B0B0B0B0B0B0C0C0C0C0C0C0D0D0D0DA0
:101290000D0D0E0E0E0E0E0E0F0F0F0F0F0F101066
:1012A0001010101111111111111212121212131328
:1012B00013131314141414141515151516161616E5
:1012C00016171717171718181818191919191A1A9D
:1012D0001A1A1A1B1B1B1B1C1C1C1C1D1D1D1D1E52
:1012E0001E1E1E1F1F1F1F20202020212121212202
:1012F00022222223232323242424252525252626B0
:101300002626272727282828282929292A2A2A2A59
:101310002B2B2B2C2C2C2C2D2D2D2E2E2E2F2F2FFE
:101320002F303030313131323232323333333434A2
:101330003435353536363637373738383838393941
:10134000393A3A3A3B3B3B3C3C3C3D3D3D3E3E3EE0
:101350003F3F3F404040414141424242434343447A
:101360004444454546464647474748484849494911
:101370004A4A4A4B4B4B4C4C4D4D4D4E4E4E4F4FA7
:101380004F5050505151525252535353545454553C
:101390005556565657575758585959595A5A5A5BCD
:1013A0005B5C5C5C5D5D5D5E5E5F5F5F606060615D
:1013B00061626262636363646465656566666667ED
:1013C0006768686869696A6A6A6B6B6B6C6C6D6D7B
:1013D0006D6E6E6F6F6F7070707171727272737309
:1013E0007474747575757676777777787879797996
:1013F0007A7A7B7B7B7C7C7C7D7D7E7E7E7F7F8022
:101400007B7B7B7B7B7B7B7B7B7B7B7C7C7C7C7C27
:101410007C7C7C7C7C7C7D7D7D7D7D7D7D7D7D7D02
:101420007D7D7E7E7E7E7E7E7E7E7E7E7E7F7F7FDB
:101430007F7F7F7F7F7F7F7F8080808080808080B4
:10144000808080808181818181818181818181828F
:101450008282828282828282828282838383838367
:101460008383838383838484848484848484848442
:10147000848585858585858585858585858686861A
:1014800086868686868686868787878787878787F4
:1014900087878788888888888888888888888889CE
:1014A000898989898989898989898A8A8A8A8A8AA6
:1014B0008A8A8A8A8A8B8B8B8B8B8B8B8B8B8B8B81
:1014C0008B8C8C8C8C8C8C8C8C8C8C8C8D8D8D8D59
:1014D0008D8D8D8D8D8D8D8D8E8E8E8E8E8E8E8E34
:1014E0008E8E8E8F8F8F8F8F8F8F8F8F8F8F90900D
:1014F00090909090909090909090919191919191E6
:1015000091919191919292929292929292929292C0
:101510009393939393939393939393939494949497
:101520009494949494949495959595959595959572
:10153000959596969696969696969696969697974B
:101540009797979797979797979898989898989824
:1015500098989898999999999999999999999999FF
:101560009A9A9A9A9A9A9A9A9A9A9A9B9B9B9B9BD6
:101570009B9B9B9B9B9B9B9C9C9C9C9C9C9C9C9CB2
:101580009C9C9D9D9D9D9D9D9D9D9D9D9D9E9E9E8A
:101590009E9E9E9E9E9E9E9E9E9F9F9F9F9F9F9F64
:1015A0009F9F9F9FA0A0A0A0A0A0A0A0A0A0A0A13E
:1015B000A1A1A1A1A1A1A1A1A1A1A1A2A2A2A2A216
:1015C000A2A2A2A2A2A2A3A3A3A3A3A3A3A3A3A3F1
:1015D000A3A4A4A4A4A4A4A4A4A4A4A4A4A5A5A5C9
:1015E000A5A5A5A5A5A5A5A5A6A6A6A6A6A6A6A6A3
:1015F000A6A6A6A7A7A7A7A7A7A7A7A7A7A7A7A87D
:10160000A8A8A8A8A8A8A8A8A8A8A9A9A9A9A9A954
:10161000A9A9A9A9A9A9AAAAAAAAAAAAAAAAAAAA30
:10162000AAABABABABABABABABABABABACACACAC07
:10163000ACACACACACACACACADADADADADADADADE2
:10164000ADADADAEAEAEAEAEAEAEAEAEAEAEAFAFBB
:10165000AFAFAFAFAFAFAFAFAFAFB0B0B0B0B0B094
:10166000B0B0B0B0B0B1B1B1B1B1B1B1B1B1B1B16F
:10167000B2B2B2B2B2B2B2B2B2B2B2B2B3B3B3B346
:10168000B3B3B3B3B3B3B3B4B4B4B4B4B4B4B4B421
:10169000B4B4B4B5B5B5B5B5B5B5B5B5B5B5B6B6FB
:1016A000B6B6B6B6B6B6B6B6B6B7B7B7B7B7B7B7D3
:1016B000B7B7B7B7B7B8B8B8B8B8B8B8B8B8B8B8AF
:1016C000B9B9B9B9B9B9B9B9B9B9B9BABABABABA85
:1016D000BABABABABABABABBBBBBBBBBBBBBBBBB61
:1016E000BBBBBCBCBCBCBCBCBCBCBCBCBCBDBDBD39
:1016F000BDBDBDBDBDBDBDBDBDBEBEBEBEBEBEBE13
:10170000BEBEBEBEBFBFBFBFBFBFBFBFBFBFBFC0EC
:10171000C0C0C0C0C0C0C0C0C0C0C0C1C1C1C1C1C4
:10172000C1C1C1C1C1C1C2C2C2C2C2C2C2C2C2C29F
:10173000C2C2C3C3C3C3C3C3C3C3C3C3C3C4C4C478
:10174000C4C4C4C4C4C4C4C4C5C5C5C5C5C5C5C551
:10175000C5C5C5C5C6C6C6C6C6C6C6C6C6C6C6C72C
:10176000C7C7C7C7C7C7C7C7C7C7C8C8C8C8C8C803
:10177000C8C8C8C8C8C8C9C9C9C9C9C9C9C9C9C9DF
:10178000C9CACACACACACACACACACACACBCBCBCBB6
:10179000CBCBCBCBCBCBCBCBCCCCCCCCCCCCCCCC91
:1017A000CCCCCCCDCDCDCDCDCDCDCDCDCDCDCDCE6B
:1017B000CECECECECECECECECECECFCFCFCFCFCF43
:1017C000CFCFCFCFCFD0D0D0D0D0D0D0D0D0D0D01E
:1017D000D0D1D1D1D1D1D1D1D1D1D1D1D2D2D2D2F6
:1017E000D2D2D2D2D2D2D2D3D3D3D3D3D3D3D3D3D0
:1017F000D3D3D3D4D4D4D4D4D4D4D4D4D4D4D5D5AA
:10180000D5D5D5D5D5D5D5D5D5D5D6D6D6D6D5D584
:10181000D5D5D4D4D3D2D1D0CFCDCBC9C7C5C2BFF3
:10182000BCB9B6B2AEABA7A39F9B97928E8A8682B5
:101830007E7A76726E6A6763605D5A5754514F4C78
:101840004A47454341403E3C3B3A383736353433CE
:1018500032313130302F2E2E2E2D2D2D2C2C2C2CA4
:101860002C2B2B2B2B2B2B2B2B2B2B2B2B2B2B2BC7
:101870002B2B2B2B2B2B2B2B2B2B2B2B2C2C2C2CB4
:101880002C2C2C2C2C2C2C2C2C2D2D2D2D2D2D2D91
:101890002D2D2D2D2D2E2E2E2E2E2E2E2E2E2E2E6D
:1018A0002F2F2F2F2F2F2F2F2F2F2F2F3030303044
:1018B000303030303030303131313131313131311F
:1018C00031313232323232323232323232323333F8
:1018D00033333333333333333334343434343434D1
:1018E00034343434353535353535353535353535AC
:1018F0003636363636363636363636373737373783
:10190000373737373737373838383838383838385E
:10191000383839393939393939393939393A3A3A36
:101920003A3A3A3A3A3A3A3A3A3B3B3B3B3B3B3B10
:101930003B3B3B3B3C3C3C3C3C3C3C3C3C3C3C3DEA
:101940003D3D3D3D3D3D3D3D3D3D3D3E3E3E3E3EC2
:101950003E3E3E3E3E3E3F3F3F3F3F3F3F3F3F3F9D
:101960003F40404040404040404040404041414175
:10197000414141414141414142424242424242424F
:10198000424242424343434343434343434343442A
:101990004444444444444444444445454545454501
:1019A00045454545454546464646464646464646DD
:1019B00046474747474747474747474748484848B4
:1019C000484848484848484849494949494949498F
:1019D0004949494A4A4A4A4A4A4A4A4A4A4A4B4B68
:1019E0004B4B4B4B4B4B4B4B4B4B4C4C4C4C4C4C41
:1019F0004C4C4C4C4C4D4D4D4D4D4D4D4D4D4D4D1C
:101A00004E4E4E4E4E4E4E4E4E4E4E4E4F4F4F4FF2
:101A10004F4F4F4F4F4F4F505050505050505050CD
:101A200050505051515151515151515151515252A7
:101A3000525252525252525252535353535353537F
:101A4000535353535354545454545454545454545B
:101A50005555555555555555555555565656565631
:101A6000565656565656565757575757575757570D
:101A700057575858585858585858585858595959E5
:101A80005959595959595959595A5A5A5A5A5A5ABF
:101A90005A5A5A5A5B5B5B5B5B5B5B5B5B5B5B5B9A
:101AA0005C5C5C5C5C5C5C5C5C5C5C5D5D5D5D5D71
:101AB0005D5D5D5D5D5D5E5E5E5E5E5E5E5E5E5E4C
:101AC0005E5E5F5F5F5F5F5F5F5F5F5F5F60606025
:101AD00060606060606060606161616161616161FE
:101AE00061616161626262626262626262626263D9
:101AF00063636363636363636363646464646464B0
:101B0000646464646464656565656565656565658B
:101B10006566666666666666666666666767676762
:101B2000676767676767676768686868686868683D
:101B30006868686969696969696969696969696A17
:101B40006A6A6A6A6A6A6A6A6A6A6B6B6B6B6B6BEF
:101B50006B6B6B6B6B6C6C6C6C6C6C6C6C6C6C6CCA
:101B60006C6D6D6D6D6D6D6D6D6D6D6D6E6E6E6EA2
:101B70006E6E6E6E6E6E6E6F6F6F6F6F6F6F6F6F7C
:101B80006F6F6F7070707070707070707070717156
:101B9000717171717171717171727272727272722E
:101BA000727272727273737373737373737373730A
:101BB00074747474747474747474747475757575E1
:101BC00075757575757575767676767676767676BC
:101BD0007676777777777777777777777777787895
:101BE000787878787878787878797979797979796E
:101BF000797979797A7A7A7A7A7A7A7A7A7A7A7A49
:101C000032323232323232323232323232323232B4
:101C100032323232323232323232323232323232A4
:101C2000323232323232323232323233333333338F
:101C30003333333333333333333333333333333374
:101C40003333333333343434343435353535363651
:101C5000363737383839393A3A3B3C3C3D3E3F3FDE
:101C6000404142434445464748494A4C4D4E4F51F6
:101C70005253555657595A5C5D5F6062636566689A
:101C8000696B6D6E707173747677797B7C7E7F8102
:101C900082848587888A8B8C8E8F91929395969774
:101CA000989A9B9C9D9EA0A1A2A3A4A5A6A7A8A923
:101CB000AAABACADAEAFAFB0B1B2B3B3B4B5B5B61D
:101CC000B7B7B8B9B9BABABBBBBCBCBDBDBEBEBF65
:101CD000BFC0C0C0C1C1C2C2C2C3C3C3C3C4C4C4E5
:101CE000C5C5C5C5C6C6C6C6C6C7C7C7C7C7C7C890
:101CF000C8C8C8C8C8C8C9C9C9C9C9C9C9C9C9C95A
:101D0000C9CACACACACACACACACACACACACACACA34
:101D1000CACBCBCBCBCBCBCBCBCBCBCBCBCBCBCB14
:101D2000CBCBCBCBCBCBCBCBCBCBCBCBCBCBCBCB03
:101D3000CBCBCBCBCBCBCBCBCBCBCBCBCBCBCBCBF3
:101D4000CBCBCBCBCBCBCBCBCBCBCBCBCBCBCBCBE3
:101D5000CBCBCBCBCBCBCBCBCBCBCBCBCBCBCBCBD3
:101D6000CBCBCBCBCBCBCBCBCBCBCBCBCBCBCBCBC3
:101D7000CBCBCBCBCBCBCBCBCBCBCBCBCBCBCBCBB3
:101D8000CBCBCBCBCBCBCBCBCBCBCBCBCBCCCCCCA0
:101D9000CCCCCCCCCCCCCCCCCCCCCCCCCCCCCCCC83
:101DA000CCCCCCCCCCCCCCCCCCCCCCCCCCCCCCCC73
:101DB000CCCCCCCCCCCCCCCCCCCCCCCCCCCCCCCC63
:101DC000CCCCCCCCCCCCCCCCCCCCCCCCCCCCCCCC53
:10200000CCCCCCCCCCCCCCCCCCCCCCCBCBCBCBCB15
:10201000CBCBCBCBCBCBCBCBCBCBCBCBCBCBCBCB10
:10202000CBCBCACACACACAC9C9C9C9C8C8C7C7C71F
:10203000C6C6C5C4C4C3C2C2C1C0BFBFBEBDBCBB8F
:10204000BAB9B8B7B6B4B3B2B1AFAEADABAAA9A77F
:10205000A6A4A3A1A09E9D9B9A9897959492908FD9
:102060008D8C8A8987858482817F7E7C7B79787656
:10207000757372706F6E6C6B6A68676664636261B9
:10208000605E5D5C5B5A59585756555453525150D7
:102090004F4F4E4D4C4B4B4A4949484747464545A3
:1020A000444443424241414040403F3F3E3E3D3D2B
:1020B0003D3C3C3C3B3B3B3A3A3A3A39393939387A
:1020C00038383838373737373737363636363636A2
:1020D00036353535353535353535353434343434B4
:1020E00034343434343434343434343433333333B4
:1020F00033333333333333333333333333333333B0
:10210000333333333333333333333333333333339F
:10211000333333333333333333333333333333338F
:10212000333333333333333333333333333333337F
:10213000333333333333333333333333333333336F
:10214000333333333333333333333333333333335F
:10215000333333333333333333333333333333334F
:102160003333333333333332323232323232323248
:10217000323232323232323232323232323232323F
:10218000323232323232323232323232323232322F
:10219000323232323232323232323232323232321F
:1021A000323232323232323232323232323232320F
:1023E00032323333333333333333333333333333BF
:1023F00033333333333333333333333434343434A8
:10240000908E8E8E8D8E8E8F8F90909090909090DB
:10241000908F8E8E8D8C8C8B8A8A8A8A8A8A8A8A01
:10242000898988878684838382807F7E7C7B7A7992
:102430007978787777767575747373727271706F57
:102440006E6D6D6D6D6E6E6D6D6D6D6E70717274A5
:1024500076797C7E8285888A8D90929497999B9DCF
:102460009FA0A1A1A1A2A2A2A2A3A4A5A6A8A9AA35
:10247000AAAAAAAAAAAAAAA9A9A9A8A8A8A8A8A8CB
:10248000A8A8A9AAABABABABABABABABACACACADA0
:10249000AEAEAFB0B0B0B1B1B1B1B1B0B0AFAFAE40
:1024A000ADABAAA9A8A7A5A3A2A09F9D9C9B9A9902
:1024B000979695949392919190908F8F8F8F8E8E07
:1024C0008D8C8A8988868483817F7D7C7B7A7A7AE9
:1024D0007A7A7A79797A7A7A7B7B7C7C7D7D7D7D4C
:1024E0007C7C7B7B7B7B7A7A7B7B7C7D7D7D7E7E2F
:1024F0007E7E7E7D7D7C7B7A7A7978777573726F4C
:102500006D6B6A69686767666564646261605F5E77
:102510005D5C5B5B5B5B5B5B5C5C5D5E5E5E5F60F2
:102520006163646566676868696969686867676741
:10253000676868696A6B6C6D6D6F70727476787AB3
:102540007D7F818486888A8B8D8E909192939494DE
:1025500095949494939291908F8E8D8B8989878690
:102560008584838282828283838383838281818143
:10257000808080808080807F7F7F7F7F7F7E7F7F65
:102580007F7F808080808081818283838484848433
:10259000848585858585858584838180807F7E7D12
:1025A0007D7D7C7C7C7C7B7B7B7B7B7B7C7C7D7D6D
:1025B0007E7E7F80818282838486888B8E909395B5
:1025C00098999B9C9D9E9FA1A2A3A4A4A4A4A3A20E
:1025D000A1A09F9E9E9E9D9C9B9998979695949452
:1025E00095959595959594949493939393949493AA
:1025F0009291919090908F8E8E8D8B8A8989888808
:1026000087878786868584838180807F7E7E7E7DA6
:102610007C7C7B7B7C7C7C7C7C7C7B7A797878770F
:102620007777777776767676767677767676757448
:102630007474747374747474747474757576777850
:10264000797A7C7E7F818282828383828281817F8C
:102650007E7D7C7C7C7B7C7C7D7D7D7D7E7F8081A6
:102660008181828282828282838383838383838344
:102670008382828181807F7E7D7C7B7A7979787884
:1026800078787777767676767575757575757575EC
:102690007575747473727171706F6E6E6D6C6A693A
:1026A0006766646261605F5E5E5D5C5C5C5B5B5B39
:1026B0005A5959585959595A5A5A5A5A5958585888
:1026C000585859595A5B5B5C5D5D5D5D5E5E5F604D
:1026D000616263646567686A6A6B6B6B6B6A6A697F
:1026E0006868686868696969696969696A6A6B6C58
:1026F0006C6D6E6F707171717273737374747575C4
:102700007576767676767677777778787777777660
:102710007675757576767777787879797979797A43
:102720007A7B7B7A7A7A7A7A797878777675757522
:102730007574747372717171717170706F6E6D6C8C
:102740006A6968666462605E5C5B59575553514FB5
:102750004D4B494745444241403E3C3A383735337A
:1027600032312F2E2C2B2A292928282827262625C6
:102770002424242424242525252626272829292AFB
:102780002A29292A2A2B2B2B2B2B2B2B2B2B2B2BA0
:102790002B2C2C2C2D2E2F30323436383A3B3C3E0D
:1027A0003F4142434344454648494A4C4E505152AA
:1027B0005354555758595B5C5E606163636465664A
:1027C0006768696A6A6A696969696A6B6B6C6C6B6C
:1027D0006B6C6C6C6B6B6B6B6B6B6C6D6E6F707032
:1027E000717374767778797A7B7C7D7D7E7D7D7C54
:1027F0007C7C7B7A7978777675747372717070707F
:102800006F6F6F6E6D6E6D6D6E6F707172727375CE
:10281000767777787879797A7B7B7C7D7E80818208
:10282000838484848585848382807F7E7C7B7978A1
:1028300077767574727271706F6F6F6F7070707081
:10284000707071717272737373747474747473735F
:102850007373737374747574747474737271706F4A
:102860006D6C6B6A686766666666666666666565F1
:1028700065656666676868686869686969686867E1
:102880006766656464636262616160606061616023
:10289000606060616160605F5F5E5E5D5D5C5C5D4D
:1028A0005C5C5B5B5B5B5B5C5C5C5C5C5D5D5D5E68
:1028B0005E5E5E5E5E5E5F5F60606061616262621E
:1028C0006161605F5F5F5F5F5F5F5F5F5E5F5F5F14
:1028D0005F5F5F5E5F5F5F5F6060616263656668E8
:1028E000696A6B6C6D6D6F707171727273737373F3
:1028F000737373737373737272727271706F6F6FBD
:102900006F6F6F6E6D6C6B6B6B6A6A696968676716
:10291000666463615F5E5C5B5958585757575757F9
:1029200057575859595A5B5C5C5C5D5D5E5F6061EE
:1029300063646668696A6C6D6E6F707173747577C5
:10294000787A7B7D7E80818284858788898A8C8C59
:102950008D8E8F9091919191919192929293949565
:102960009698999A9B9C9C9C9D9E9FA0A0A1A1A19A
:10297000A2A2A2A1A09F9E9D9D9C9C9B9B9B9A9A7C
:102980009A999998979898979797969696959594D7
:1029900092908E8C8A888684817F7C797673716F21
:1029A0006D6C6A69686664636362615F5E5C5A59F4
:1029B00059585858595A5B5C5C5E5F61636465673F
:1029C000696B6C6D6E6F707172727272727271700F
:1029D0007071717172727171717170707070706FED
:1029E0006F6F6E6E6F6F70717274757677787979BC
:1029F0007A7A7A7A7A7A797878787879797A7B7B40
:102A00007B7B7B7A79787776757474737271706F6B
:102A10006E6D6B6A686665636260605F5E5E5E5E77
:102A20005F5F60606161606060606061616162639E
:102A30006465666768696A6A6B6B6C6D6E6E6F6FF2
:102A400070717273737474757677787A7B7C7E7F1D
:102A500080818283858687878889898A8B8C8C8C04
:102A60008C8C8C8C8C8C8B8A8A8A8A8A8A8B8B8BB6
:102A70008B8A8A8A898887868585858585858686E5
:102A8000868685848383838282828282838484850E
:102A900085858585868687888A8C8E90929496987F
:102AA0009A9D9FA1A3A5A7A9AAABACADADAEAFB0AF
:102AB000B0B1B2B2B3B3B3B3B4B4B4B5B5B5B5B4E1
:102AC000B4B4B3B3B2B2B1B0B0B0AFAFAEAEAEADFE
:102AD000ACACACADADAFAFB0B1B2B3B5B7B9BABBDA
:102AE000BCBCBDBDBDBDBDBEBEBFC0C0C1C3C4C5F5
:102AF000C5C6C6C5C5C4C4C3C3C3C3C3C4C5C5C690
:102B0000C6C6C6C5C5C5C5C5C5C4C2C1BFBDBCBB9B
:102B1000BAB9B8B7B6B5B5B4B3B2B1B0AFAEAEAE80
:102B2000ADACABAAAAAAAAAAABABABAAAAA9A9A800
:102B3000A7A6A4A3A19F9D9B9997959391908E8DF5
:102B40008C8B8B8A8A89898786858483838282811C
:102B500080807E7E7D7D7D7C7B7A797876757372D0
:102B600071707070707171727171717170706F6E5F
:102B70006E6D6C6C6C6C6C6C6C6D6E6E6F6E6F6E83
:102B80006F6F6F6F707071727374757677797A7B0F
:102B90007C7D7E7F7F80818182828282828282812F
:102BA000818181807F7F7E7F7F7F7E7F7E7E7E7F33
:102BB0007F7F7F7F7F7F7F7F7F7F7F7F808182831B
:102BC00084858585868888898A8B8C8C8C8C8C8B77
:102BD0008B8B8A8A8A898989898989888888888863
:102BE0008889898989898989898A8A8B8A8A8B8A4D
:102BF0008A8A8A8A8A89898A8A8B8C8C8D8D8E8E24
:102C0000808C99A5B1BCC7D1DAE2EAF0F5FAFDFEF5
:102C1000FFFEFDFAF5F0EAE2DAD1C7BCB1A5998C66
:102C20008074675B4F44392F261E16100B06030273
:102C3000010203060B10161E262F39444F5B6774E2
:102C4000808C99A5B1BCC7D1DAE2EAF0F5FAFDFEB5
:102C5000FFFEFDFAF5F0EAE2DAD1C7BCB1A5998C26
:102C60008074675B4F44392F261E16100B06030233
:102C7000010203060B10161E262F39444F5B6774A2
:102E00005640363024201B1812100C090806040204
:102E10000FEF1FEF000000000000000000000000A6
:102E200000000000000000000000000000000000A2
:102E300000001A9579F70A9561F70091690003700F
:102E4000002311F40C94280000E00093690001E0D5
:102E50000CBB00E005BD00936E0001E005BB00E087
:102E600000938000009381000093820000936F0024
:102E700001E006BB00E00093B0000093B1000093B6
:102E8000700007E007BB00E000937A0000937C002D
:102E90000FEE0093640000E805B90FE708B907E1F9
:102EA0000BB905E003BF000000000000789488958E
:082EB000000000000000ACCF9F
:00000001FF
